{
  "contractName": "MessageAndTransfer",
  "abi": [
    {
      "inputs": [],
      "stateMutability": "nonpayable",
      "type": "constructor"
    },
    {
      "stateMutability": "payable",
      "type": "fallback"
    },
    {
      "inputs": [],
      "name": "message",
      "outputs": [
        {
          "internalType": "string",
          "name": "",
          "type": "string"
        }
      ],
      "stateMutability": "view",
      "type": "function"
    },
    {
      "inputs": [],
      "name": "owner",
      "outputs": [
        {
          "internalType": "address payable",
          "name": "",
          "type": "address"
        }
      ],
      "stateMutability": "view",
      "type": "function"
    },
    {
      "stateMutability": "payable",
      "type": "receive"
    },
    {
      "inputs": [
        {
          "internalType": "string",
          "name": "newMessage",
          "type": "string"
        }
      ],
      "name": "setMessage",
      "outputs": [],
      "stateMutability": "payable",
      "type": "function"
    },
    {
      "inputs": [],
      "name": "getMessage",
      "outputs": [
        {
          "internalType": "string",
          "name": "",
          "type": "string"
        }
      ],
      "stateMutability": "view",
      "type": "function"
    },
    {
      "inputs": [
        {
          "internalType": "address payable",
          "name": "recipient",
          "type": "address"
        },
        {
          "internalType": "uint256",
          "name": "amount",
          "type": "uint256"
        }
      ],
      "name": "transferTo",
      "outputs": [],
      "stateMutability": "nonpayable",
      "type": "function"
    }
  ],
  "bytecode": "0x608060405234801561000f575f80fd5b503360015f6101000a81548173ffffffffffffffffffffffffffffffffffffffff021916908373ffffffffffffffffffffffffffffffffffffffff1602179055506109ee8061005d5f395ff3fe60806040526004361061004d575f3560e01c80632ccb1b3014610056578063368b87721461007e5780638da5cb5b1461009a578063ce6d41de146100c4578063e21f37ce146100ee57610054565b3661005457005b005b348015610061575f80fd5b5061007c600480360381019061007791906103de565b610118565b005b61009860048036038101906100939190610558565b6101ef565b005b3480156100a5575f80fd5b506100ae610201565b6040516100bb91906105ae565b60405180910390f35b3480156100cf575f80fd5b506100d8610226565b6040516100e59190610641565b60405180910390f35b3480156100f9575f80fd5b506101026102b5565b60405161010f9190610641565b60405180910390f35b60015f9054906101000a900473ffffffffffffffffffffffffffffffffffffffff1673ffffffffffffffffffffffffffffffffffffffff163373ffffffffffffffffffffffffffffffffffffffff16146101a7576040517f08c379a000000000000000000000000000000000000000000000000000000000815260040161019e906106d1565b60405180910390fd5b8173ffffffffffffffffffffffffffffffffffffffff166108fc8290811502906040515f60405180830381858888f193505050501580156101ea573d5f803e3d5ffd5b505050565b805f90816101fd91906108e9565b5050565b60015f9054906101000a900473ffffffffffffffffffffffffffffffffffffffff1681565b60605f80546102349061071c565b80601f01602080910402602001604051908101604052809291908181526020018280546102609061071c565b80156102ab5780601f10610282576101008083540402835291602001916102ab565b820191905f5260205f20905b81548152906001019060200180831161028e57829003601f168201915b5050505050905090565b5f80546102c19061071c565b80601f01602080910402602001604051908101604052809291908181526020018280546102ed9061071c565b80156103385780601f1061030f57610100808354040283529160200191610338565b820191905f5260205f20905b81548152906001019060200180831161031b57829003601f168201915b505050505081565b5f604051905090565b5f80fd5b5f80fd5b5f73ffffffffffffffffffffffffffffffffffffffff82169050919050565b5f61037a82610351565b9050919050565b61038a81610370565b8114610394575f80fd5b50565b5f813590506103a581610381565b92915050565b5f819050919050565b6103bd816103ab565b81146103c7575f80fd5b50565b5f813590506103d8816103b4565b92915050565b5f80604083850312156103f4576103f3610349565b5b5f61040185828601610397565b9250506020610412858286016103ca565b9150509250929050565b5f80fd5b5f80fd5b5f601f19601f8301169050919050565b7f4e487b71000000000000000000000000000000000000000000000000000000005f52604160045260245ffd5b61046a82610424565b810181811067ffffffffffffffff8211171561048957610488610434565b5b80604052505050565b5f61049b610340565b90506104a78282610461565b919050565b5f67ffffffffffffffff8211156104c6576104c5610434565b5b6104cf82610424565b9050602081019050919050565b828183375f83830152505050565b5f6104fc6104f7846104ac565b610492565b90508281526020810184848401111561051857610517610420565b5b6105238482856104dc565b509392505050565b5f82601f83011261053f5761053e61041c565b5b813561054f8482602086016104ea565b91505092915050565b5f6020828403121561056d5761056c610349565b5b5f82013567ffffffffffffffff81111561058a5761058961034d565b5b6105968482850161052b565b91505092915050565b6105a881610370565b82525050565b5f6020820190506105c15f83018461059f565b92915050565b5f81519050919050565b5f82825260208201905092915050565b5f5b838110156105fe5780820151818401526020810190506105e3565b5f8484015250505050565b5f610613826105c7565b61061d81856105d1565b935061062d8185602086016105e1565b61063681610424565b840191505092915050565b5f6020820190508181035f8301526106598184610609565b905092915050565b7f4f6e6c7920746865206f776e65722063616e207472616e736665722066756e645f8201527f7300000000000000000000000000000000000000000000000000000000000000602082015250565b5f6106bb6021836105d1565b91506106c682610661565b604082019050919050565b5f6020820190508181035f8301526106e8816106af565b9050919050565b7f4e487b71000000000000000000000000000000000000000000000000000000005f52602260045260245ffd5b5f600282049050600182168061073357607f821691505b602082108103610746576107456106ef565b5b50919050565b5f819050815f5260205f209050919050565b5f6020601f8301049050919050565b5f82821b905092915050565b5f600883026107a87fffffffffffffffffffffffffffffffffffffffffffffffffffffffffffffffff8261076d565b6107b2868361076d565b95508019841693508086168417925050509392505050565b5f819050919050565b5f6107ed6107e86107e3846103ab565b6107ca565b6103ab565b9050919050565b5f819050919050565b610806836107d3565b61081a610812826107f4565b848454610779565b825550505050565b5f90565b61082e610822565b6108398184846107fd565b505050565b5b8181101561085c576108515f82610826565b60018101905061083f565b5050565b601f8211156108a1576108728161074c565b61087b8461075e565b8101602085101561088a578190505b61089e6108968561075e565b83018261083e565b50505b505050565b5f82821c905092915050565b5f6108c15f19846008026108a6565b1980831691505092915050565b5f6108d983836108b2565b9150826002028217905092915050565b6108f2826105c7565b67ffffffffffffffff81111561090b5761090a610434565b5b610915825461071c565b610920828285610860565b5f60209050601f831160018114610951575f841561093f578287015190505b61094985826108ce565b8655506109b0565b601f19841661095f8661074c565b5f5b8281101561098657848901518255600182019150602085019450602081019050610961565b868310156109a3578489015161099f601f8916826108b2565b8355505b6001600288020188555050505b50505050505056fea26469706673582212209aaaf0877384270d3bcee2ede839553560c325d2d843898fbcf87bd58385dc0464736f6c63430008150033",
  "immutableReferences": {},
  "source": "// SPDX-License-Identifier: MIT\r\npragma solidity ^0.8.0;\r\n\r\ncontract MessageAndTransfer {\r\n    string public message;\r\n    address payable public owner;\r\n\r\n    constructor() {\r\n        owner = payable(msg.sender);\r\n    }\r\n\r\n    function setMessage(string memory newMessage) public payable {\r\n        message = newMessage;\r\n    }\r\n\r\n    function getMessage() public view returns (string memory) {\r\n        return message;\r\n    }\r\n\r\n    function transferTo(address payable recipient, uint256 amount) public {\r\n        require(msg.sender == owner, \"Only the owner can transfer funds\");\r\n        recipient.transfer(amount);\r\n    }\r\n\r\n    // Function to receive Ether. msg.data must be empty\r\n    receive() external payable {}\r\n\r\n    // Fallback function is called when msg.data is not empty\r\n    fallback() external payable {}\r\n}\r\n",
  "sourcePath": "D:\\ThietKeWeb\\ITC\\VueJS\\demoeth\\contracts\\MessageAndTransfer.sol",
  "compiler": {
    "name": "solc",
    "version": "0.8.21+commit.d9974bed.Emscripten.clang"
  },
  "schemaVersion": "3.4.16",
  "updatedAt": "2024-04-03T10:59:23.016Z",
  "devdoc": {
    "kind": "dev",
    "methods": {},
    "version": 1
  },
  "userdoc": {
    "kind": "user",
    "methods": {},
    "version": 1
  }
}